{
  "contractName": "Candy",
  "abi": [
    {
      "inputs": [],
      "stateMutability": "nonpayable",
      "type": "constructor"
    },
    {
      "anonymous": false,
      "inputs": [
        {
          "indexed": true,
          "internalType": "address",
          "name": "previousOwner",
          "type": "address"
        },
        {
          "indexed": true,
          "internalType": "address",
          "name": "newOwner",
          "type": "address"
        }
      ],
      "name": "OwnershipTransferred",
      "type": "event"
    },
    {
      "anonymous": false,
      "inputs": [
        {
          "indexed": false,
          "internalType": "uint256",
          "name": "saveableCount",
          "type": "uint256"
        }
      ],
      "name": "created",
      "type": "event"
    },
    {
      "anonymous": false,
      "inputs": [
        {
          "indexed": false,
          "internalType": "uint256",
          "name": "saveableCount",
          "type": "uint256"
        }
      ],
      "name": "liquidated",
      "type": "event"
    },
    {
      "anonymous": false,
      "inputs": [
        {
          "indexed": false,
          "internalType": "uint256",
          "name": "saveableCount",
          "type": "uint256"
        },
        {
          "indexed": false,
          "internalType": "uint256",
          "name": "amount",
          "type": "uint256"
        }
      ],
      "name": "saved",
      "type": "event"
    },
    {
      "anonymous": false,
      "inputs": [
        {
          "indexed": false,
          "internalType": "uint256",
          "name": "saveableCount",
          "type": "uint256"
        },
        {
          "indexed": false,
          "internalType": "uint256",
          "name": "amount",
          "type": "uint256"
        }
      ],
      "name": "withdrawn",
      "type": "event"
    },
    {
      "inputs": [
        {
          "internalType": "address",
          "name": "",
          "type": "address"
        },
        {
          "internalType": "uint256",
          "name": "",
          "type": "uint256"
        }
      ],
      "name": "accessibleRef",
      "outputs": [
        {
          "internalType": "uint256",
          "name": "",
          "type": "uint256"
        }
      ],
      "stateMutability": "view",
      "type": "function",
      "constant": true
    },
    {
      "inputs": [],
      "name": "owner",
      "outputs": [
        {
          "internalType": "address",
          "name": "",
          "type": "address"
        }
      ],
      "stateMutability": "view",
      "type": "function",
      "constant": true
    },
    {
      "inputs": [],
      "name": "renounceOwnership",
      "outputs": [],
      "stateMutability": "nonpayable",
      "type": "function"
    },
    {
      "inputs": [],
      "name": "saveableCount",
      "outputs": [
        {
          "internalType": "uint256",
          "name": "",
          "type": "uint256"
        }
      ],
      "stateMutability": "view",
      "type": "function",
      "constant": true
    },
    {
      "inputs": [
        {
          "internalType": "uint256",
          "name": "",
          "type": "uint256"
        }
      ],
      "name": "saveables",
      "outputs": [
        {
          "internalType": "string",
          "name": "name",
          "type": "string"
        },
        {
          "internalType": "address payable",
          "name": "owner",
          "type": "address"
        },
        {
          "internalType": "address payable",
          "name": "accessibleBy",
          "type": "address"
        },
        {
          "internalType": "uint256",
          "name": "amount",
          "type": "uint256"
        },
        {
          "internalType": "bool",
          "name": "locked",
          "type": "bool"
        }
      ],
      "stateMutability": "view",
      "type": "function",
      "constant": true
    },
    {
      "inputs": [
        {
          "internalType": "address",
          "name": "",
          "type": "address"
        },
        {
          "internalType": "uint256",
          "name": "",
          "type": "uint256"
        }
      ],
      "name": "saveablesRef",
      "outputs": [
        {
          "internalType": "uint256",
          "name": "",
          "type": "uint256"
        }
      ],
      "stateMutability": "view",
      "type": "function",
      "constant": true
    },
    {
      "inputs": [
        {
          "internalType": "address",
          "name": "newOwner",
          "type": "address"
        }
      ],
      "name": "transferOwnership",
      "outputs": [],
      "stateMutability": "nonpayable",
      "type": "function"
    },
    {
      "inputs": [
        {
          "internalType": "string",
          "name": "name",
          "type": "string"
        },
        {
          "internalType": "address",
          "name": "_accessibleBy",
          "type": "address"
        }
      ],
      "name": "addSaveable",
      "outputs": [
        {
          "internalType": "uint256",
          "name": "",
          "type": "uint256"
        }
      ],
      "stateMutability": "payable",
      "type": "function",
      "payable": true
    },
    {
      "inputs": [
        {
          "internalType": "uint256",
          "name": "_saveableCount",
          "type": "uint256"
        }
      ],
      "name": "topUp",
      "outputs": [],
      "stateMutability": "payable",
      "type": "function",
      "payable": true
    },
    {
      "inputs": [
        {
          "internalType": "uint256",
          "name": "_saveableCount",
          "type": "uint256"
        },
        {
          "internalType": "uint256",
          "name": "amount",
          "type": "uint256"
        }
      ],
      "name": "withdraw",
      "outputs": [],
      "stateMutability": "payable",
      "type": "function",
      "payable": true
    },
    {
      "inputs": [
        {
          "internalType": "uint256",
          "name": "_saveableCount",
          "type": "uint256"
        }
      ],
      "name": "liquidate",
      "outputs": [],
      "stateMutability": "payable",
      "type": "function",
      "payable": true
    },
    {
      "inputs": [
        {
          "internalType": "uint256",
          "name": "_saveableCount",
          "type": "uint256"
        }
      ],
      "name": "mySaveable",
      "outputs": [
        {
          "components": [
            {
              "internalType": "string",
              "name": "name",
              "type": "string"
            },
            {
              "internalType": "address payable",
              "name": "owner",
              "type": "address"
            },
            {
              "internalType": "address payable",
              "name": "accessibleBy",
              "type": "address"
            },
            {
              "internalType": "uint256",
              "name": "amount",
              "type": "uint256"
            },
            {
              "internalType": "bool",
              "name": "locked",
              "type": "bool"
            }
          ],
          "internalType": "struct SaveableStruct.Saveable",
          "name": "saveable",
          "type": "tuple"
        }
      ],
      "stateMutability": "view",
      "type": "function",
      "constant": true
    },
    {
      "inputs": [],
      "name": "myAccessibles",
      "outputs": [
        {
          "internalType": "uint256[]",
          "name": "",
          "type": "uint256[]"
        }
      ],
      "stateMutability": "view",
      "type": "function",
      "constant": true
    },
    {
      "inputs": [],
      "name": "mySaveables",
      "outputs": [
        {
          "internalType": "uint256[]",
          "name": "",
          "type": "uint256[]"
        }
      ],
      "stateMutability": "view",
      "type": "function",
      "constant": true
    },
    {
      "inputs": [
        {
          "internalType": "uint256",
          "name": "_saveableCount",
          "type": "uint256"
        }
      ],
      "name": "lock",
      "outputs": [],
      "stateMutability": "nonpayable",
      "type": "function"
    },
    {
      "inputs": [
        {
          "internalType": "uint256",
          "name": "_saveableCount",
          "type": "uint256"
        }
      ],
      "name": "unlock",
      "outputs": [],
      "stateMutability": "nonpayable",
      "type": "function"
    }
  ],
  "bytecode": "0x608060405234801561001057600080fd5b5061002d61002261003a60201b60201c565b61004260201b60201c565b6000600181905550610106565b600033905090565b60008060009054906101000a900473ffffffffffffffffffffffffffffffffffffffff169050816000806101000a81548173ffffffffffffffffffffffffffffffffffffffff021916908373ffffffffffffffffffffffffffffffffffffffff1602179055508173ffffffffffffffffffffffffffffffffffffffff168173ffffffffffffffffffffffffffffffffffffffff167f8be0079c531659141344cd1fd0a4f28419497f9722a3daafe3b4186f6b6457e060405160405180910390a35050565b61230a80620001166000396000f3fe6080604052600436106100f35760003560e01c8063c254a59a1161008a578063ea856d9b11610059578063ea856d9b146102e0578063f2fde38b1461030b578063f76d150b14610334578063ff66d0c814610371576100f3565b8063c254a59a14610231578063cc6c6fda14610261578063dd4670641461028c578063e053805f146102b5576100f3565b80636198e339116100c65780636198e33914610189578063715018a6146101b25780638da5cb5b146101c9578063b3d7161c146101f4576100f3565b8063415f1240146100f8578063441a3e701461011457806350017f3e1461013057806351ea4d271461014c575b600080fd5b610112600480360381019061010d919061192e565b6103b2565b005b61012e6004803603810190610129919061195b565b610a98565b005b61014a6004803603810190610145919061192e565b610cc6565b005b34801561015857600080fd5b50610173600480360381019061016e919061192e565b610d51565b6040516101809190611b15565b60405180910390f35b34801561019557600080fd5b506101b060048036038101906101ab919061192e565b610ee1565b005b3480156101be57600080fd5b506101c7610f83565b005b3480156101d557600080fd5b506101de61100b565b6040516101eb9190611b58565b60405180910390f35b34801561020057600080fd5b5061021b60048036038101906102169190611b9f565b611034565b6040516102289190611bee565b60405180910390f35b61024b60048036038101906102469190611d3e565b611065565b6040516102589190611bee565b60405180910390f35b34801561026d57600080fd5b506102766112d2565b6040516102839190611bee565b60405180910390f35b34801561029857600080fd5b506102b360048036038101906102ae919061192e565b6112d8565b005b3480156102c157600080fd5b506102ca61137a565b6040516102d79190611e49565b60405180910390f35b3480156102ec57600080fd5b506102f561140f565b6040516103029190611e49565b60405180910390f35b34801561031757600080fd5b50610332600480360381019061032d9190611e6b565b6114a4565b005b34801561034057600080fd5b5061035b60048036038101906103569190611b9f565b61159c565b6040516103689190611bee565b60405180910390f35b34801561037d57600080fd5b506103986004803603810190610393919061192e565b6115cd565b6040516103a9959493929190611f00565b60405180910390f35b6002600082815260200190815260200160002060010160009054906101000a900473ffffffffffffffffffffffffffffffffffffffff166002600083815260200190815260200160002060020160009054906101000a900473ffffffffffffffffffffffffffffffffffffffff168173ffffffffffffffffffffffffffffffffffffffff163373ffffffffffffffffffffffffffffffffffffffff16148061048557508073ffffffffffffffffffffffffffffffffffffffff163373ffffffffffffffffffffffffffffffffffffffff16145b61048e57600080fd5b6002600084815260200190815260200160002060040160009054906101000a900460ff166001151581151514156104fa576040517f08c379a00000000000000000000000000000000000000000000000000000000081526004016104f190611fcc565b60405180910390fd5b600154841061050857600080fd5b3373ffffffffffffffffffffffffffffffffffffffff166108fc60026000878152602001908152602001600020600301549081150290604051600060405180830381858888f19350505050158015610564573d6000803e3d6000fd5b50600260008581526020019081526020016000206000808201600061058991906117a4565b6001820160006101000a81549073ffffffffffffffffffffffffffffffffffffffff02191690556002820160006101000a81549073ffffffffffffffffffffffffffffffffffffffff021916905560038201600090556004820160006101000a81549060ff0219169055505060005b600360003373ffffffffffffffffffffffffffffffffffffffff1673ffffffffffffffffffffffffffffffffffffffff168152602001908152602001600020805490508110156108275784600360003373ffffffffffffffffffffffffffffffffffffffff1673ffffffffffffffffffffffffffffffffffffffff168152602001908152602001600020828154811061069457610693611fec565b5b9060005260206000200154141561081457600360003373ffffffffffffffffffffffffffffffffffffffff1673ffffffffffffffffffffffffffffffffffffffff1681526020019081526020016000206001600360003373ffffffffffffffffffffffffffffffffffffffff1673ffffffffffffffffffffffffffffffffffffffff16815260200190815260200160002080549050610733919061204a565b8154811061074457610743611fec565b5b9060005260206000200154600360003373ffffffffffffffffffffffffffffffffffffffff1673ffffffffffffffffffffffffffffffffffffffff16815260200190815260200160002082815481106107a05761079f611fec565b5b9060005260206000200181905550600360003373ffffffffffffffffffffffffffffffffffffffff1673ffffffffffffffffffffffffffffffffffffffff1681526020019081526020016000208054806107fd576107fc61207e565b5b600190038181906000526020600020016000905590555b808061081f906120ad565b9150506105f8565b5060005b600460003373ffffffffffffffffffffffffffffffffffffffff1673ffffffffffffffffffffffffffffffffffffffff16815260200190815260200160002080549050811015610a5a5784600460003373ffffffffffffffffffffffffffffffffffffffff1673ffffffffffffffffffffffffffffffffffffffff16815260200190815260200160002082815481106108c7576108c6611fec565b5b90600052602060002001541415610a4757600460003373ffffffffffffffffffffffffffffffffffffffff1673ffffffffffffffffffffffffffffffffffffffff1681526020019081526020016000206001600460003373ffffffffffffffffffffffffffffffffffffffff1673ffffffffffffffffffffffffffffffffffffffff16815260200190815260200160002080549050610966919061204a565b8154811061097757610976611fec565b5b9060005260206000200154600460003373ffffffffffffffffffffffffffffffffffffffff1673ffffffffffffffffffffffffffffffffffffffff16815260200190815260200160002082815481106109d3576109d2611fec565b5b9060005260206000200181905550600460003373ffffffffffffffffffffffffffffffffffffffff1673ffffffffffffffffffffffffffffffffffffffff168152602001908152602001600020805480610a3057610a2f61207e565b5b600190038181906000526020600020016000905590555b8080610a52906120ad565b91505061082b565b507f5ea2a2cfe995175c53439342a58c85a3b60585027fb7e81ab98de20a0e1e460d84604051610a8a9190611bee565b60405180910390a150505050565b6002600083815260200190815260200160002060010160009054906101000a900473ffffffffffffffffffffffffffffffffffffffff166002600084815260200190815260200160002060020160009054906101000a900473ffffffffffffffffffffffffffffffffffffffff168173ffffffffffffffffffffffffffffffffffffffff163373ffffffffffffffffffffffffffffffffffffffff161480610b6b57508073ffffffffffffffffffffffffffffffffffffffff163373ffffffffffffffffffffffffffffffffffffffff16145b610b7457600080fd5b6002600085815260200190815260200160002060040160009054906101000a900460ff16600115158115151415610be0576040517f08c379a0000000000000000000000000000000000000000000000000000000008152600401610bd790611fcc565b60405180910390fd5b8360026000878152602001908152602001600020600301541015610c0357600080fd5b836002600087815260200190815260200160002060030154610c25919061204a565b60026000878152602001908152602001600020600301819055503373ffffffffffffffffffffffffffffffffffffffff166108fc859081150290604051600060405180830381858888f19350505050158015610c85573d6000803e3d6000fd5b507f02a242da22f41597f81e35cc873f3445d4959f7698cf9acf09f02f9e4ee2515e8585604051610cb79291906120f6565b60405180910390a15050505050565b662386f26fc100003411610cd957600080fd5b346002600083815260200190815260200160002060030154610cfb919061211f565b60026000838152602001908152602001600020600301819055507f1b34b64c0ab8c41e617b8a92406d3e46fd106382fbcda16e241f69b93190cde48134604051610d469291906120f6565b60405180910390a150565b610d596117e4565b600260008381526020019081526020016000206040518060a0016040529081600082018054610d87906121a4565b80601f0160208091040260200160405190810160405280929190818152602001828054610db3906121a4565b8015610e005780601f10610dd557610100808354040283529160200191610e00565b820191906000526020600020905b815481529060010190602001808311610de357829003601f168201915b505050505081526020016001820160009054906101000a900473ffffffffffffffffffffffffffffffffffffffff1673ffffffffffffffffffffffffffffffffffffffff1673ffffffffffffffffffffffffffffffffffffffff1681526020016002820160009054906101000a900473ffffffffffffffffffffffffffffffffffffffff1673ffffffffffffffffffffffffffffffffffffffff1673ffffffffffffffffffffffffffffffffffffffff168152602001600382015481526020016004820160009054906101000a900460ff1615151515815250509050919050565b6002600082815260200190815260200160002060010160009054906101000a900473ffffffffffffffffffffffffffffffffffffffff168073ffffffffffffffffffffffffffffffffffffffff163373ffffffffffffffffffffffffffffffffffffffff1614610f5057600080fd5b60006002600084815260200190815260200160002060040160006101000a81548160ff0219169083151502179055505050565b610f8b6116d8565b73ffffffffffffffffffffffffffffffffffffffff16610fa961100b565b73ffffffffffffffffffffffffffffffffffffffff1614610fff576040517f08c379a0000000000000000000000000000000000000000000000000000000008152600401610ff690612222565b60405180910390fd5b61100960006116e0565b565b60008060009054906101000a900473ffffffffffffffffffffffffffffffffffffffff16905090565b6004602052816000526040600020818154811061105057600080fd5b90600052602060002001600091509150505481565b60006040518060a001604052808481526020013373ffffffffffffffffffffffffffffffffffffffff1681526020018373ffffffffffffffffffffffffffffffffffffffff1681526020013481526020016000151581525060026000600154815260200190815260200160002060008201518160000190805190602001906110ee929190611841565b5060208201518160010160006101000a81548173ffffffffffffffffffffffffffffffffffffffff021916908373ffffffffffffffffffffffffffffffffffffffff16021790555060408201518160020160006101000a81548173ffffffffffffffffffffffffffffffffffffffff021916908373ffffffffffffffffffffffffffffffffffffffff1602179055506060820151816003015560808201518160040160006101000a81548160ff0219169083151502179055509050507f82cb6b725e59ade23a341049130f1644c4615b13001240e362603069dacf304c6001546040516111db9190611bee565b60405180910390a1600360003373ffffffffffffffffffffffffffffffffffffffff1673ffffffffffffffffffffffffffffffffffffffff1681526020019081526020016000206001549080600181540180825580915050600190039060005260206000200160009091909190915055600460008373ffffffffffffffffffffffffffffffffffffffff1673ffffffffffffffffffffffffffffffffffffffff1681526020019081526020016000206001549080600181540180825580915050600190039060005260206000200160009091909190915055600180546112c1919061211f565b600181905550600154905092915050565b60015481565b6002600082815260200190815260200160002060010160009054906101000a900473ffffffffffffffffffffffffffffffffffffffff168073ffffffffffffffffffffffffffffffffffffffff163373ffffffffffffffffffffffffffffffffffffffff161461134757600080fd5b60016002600084815260200190815260200160002060040160006101000a81548160ff0219169083151502179055505050565b6060600360003373ffffffffffffffffffffffffffffffffffffffff1673ffffffffffffffffffffffffffffffffffffffff16815260200190815260200160002080548060200260200160405190810160405280929190818152602001828054801561140557602002820191906000526020600020905b8154815260200190600101908083116113f1575b5050505050905090565b6060600460003373ffffffffffffffffffffffffffffffffffffffff1673ffffffffffffffffffffffffffffffffffffffff16815260200190815260200160002080548060200260200160405190810160405280929190818152602001828054801561149a57602002820191906000526020600020905b815481526020019060010190808311611486575b5050505050905090565b6114ac6116d8565b73ffffffffffffffffffffffffffffffffffffffff166114ca61100b565b73ffffffffffffffffffffffffffffffffffffffff1614611520576040517f08c379a000000000000000000000000000000000000000000000000000000000815260040161151790612222565b60405180910390fd5b600073ffffffffffffffffffffffffffffffffffffffff168173ffffffffffffffffffffffffffffffffffffffff161415611590576040517f08c379a0000000000000000000000000000000000000000000000000000000008152600401611587906122b4565b60405180910390fd5b611599816116e0565b50565b600360205281600052604060002081815481106115b857600080fd5b90600052602060002001600091509150505481565b60026020528060005260406000206000915090508060000180546115f0906121a4565b80601f016020809104026020016040519081016040528092919081815260200182805461161c906121a4565b80156116695780601f1061163e57610100808354040283529160200191611669565b820191906000526020600020905b81548152906001019060200180831161164c57829003601f168201915b5050505050908060010160009054906101000a900473ffffffffffffffffffffffffffffffffffffffff16908060020160009054906101000a900473ffffffffffffffffffffffffffffffffffffffff16908060030154908060040160009054906101000a900460ff16905085565b600033905090565b60008060009054906101000a900473ffffffffffffffffffffffffffffffffffffffff169050816000806101000a81548173ffffffffffffffffffffffffffffffffffffffff021916908373ffffffffffffffffffffffffffffffffffffffff1602179055508173ffffffffffffffffffffffffffffffffffffffff168173ffffffffffffffffffffffffffffffffffffffff167f8be0079c531659141344cd1fd0a4f28419497f9722a3daafe3b4186f6b6457e060405160405180910390a35050565b5080546117b0906121a4565b6000825580601f106117c257506117e1565b601f0160209004906000526020600020908101906117e091906118c7565b5b50565b6040518060a0016040528060608152602001600073ffffffffffffffffffffffffffffffffffffffff168152602001600073ffffffffffffffffffffffffffffffffffffffff168152602001600081526020016000151581525090565b82805461184d906121a4565b90600052602060002090601f01602090048101928261186f57600085556118b6565b82601f1061188857805160ff19168380011785556118b6565b828001600101855582156118b6579182015b828111156118b557825182559160200191906001019061189a565b5b5090506118c391906118c7565b5090565b5b808211156118e05760008160009055506001016118c8565b5090565b6000604051905090565b600080fd5b600080fd5b6000819050919050565b61190b816118f8565b811461191657600080fd5b50565b60008135905061192881611902565b92915050565b600060208284031215611944576119436118ee565b5b600061195284828501611919565b91505092915050565b60008060408385031215611972576119716118ee565b5b600061198085828601611919565b925050602061199185828601611919565b9150509250929050565b600081519050919050565b600082825260208201905092915050565b60005b838110156119d55780820151818401526020810190506119ba565b838111156119e4576000848401525b50505050565b6000601f19601f8301169050919050565b6000611a068261199b565b611a1081856119a6565b9350611a208185602086016119b7565b611a29816119ea565b840191505092915050565b600073ffffffffffffffffffffffffffffffffffffffff82169050919050565b6000611a5f82611a34565b9050919050565b611a6f81611a54565b82525050565b611a7e816118f8565b82525050565b60008115159050919050565b611a9981611a84565b82525050565b600060a0830160008301518482036000860152611abc82826119fb565b9150506020830151611ad16020860182611a66565b506040830151611ae46040860182611a66565b506060830151611af76060860182611a75565b506080830151611b0a6080860182611a90565b508091505092915050565b60006020820190508181036000830152611b2f8184611a9f565b905092915050565b6000611b4282611a34565b9050919050565b611b5281611b37565b82525050565b6000602082019050611b6d6000830184611b49565b92915050565b611b7c81611b37565b8114611b8757600080fd5b50565b600081359050611b9981611b73565b92915050565b60008060408385031215611bb657611bb56118ee565b5b6000611bc485828601611b8a565b9250506020611bd585828601611919565b9150509250929050565b611be8816118f8565b82525050565b6000602082019050611c036000830184611bdf565b92915050565b600080fd5b600080fd5b7f4e487b7100000000000000000000000000000000000000000000000000000000600052604160045260246000fd5b611c4b826119ea565b810181811067ffffffffffffffff82111715611c6a57611c69611c13565b5b80604052505050565b6000611c7d6118e4565b9050611c898282611c42565b919050565b600067ffffffffffffffff821115611ca957611ca8611c13565b5b611cb2826119ea565b9050602081019050919050565b82818337600083830152505050565b6000611ce1611cdc84611c8e565b611c73565b905082815260208101848484011115611cfd57611cfc611c0e565b5b611d08848285611cbf565b509392505050565b600082601f830112611d2557611d24611c09565b5b8135611d35848260208601611cce565b91505092915050565b60008060408385031215611d5557611d546118ee565b5b600083013567ffffffffffffffff811115611d7357611d726118f3565b5b611d7f85828601611d10565b9250506020611d9085828601611b8a565b9150509250929050565b600081519050919050565b600082825260208201905092915050565b6000819050602082019050919050565b6000611dd28383611a75565b60208301905092915050565b6000602082019050919050565b6000611df682611d9a565b611e008185611da5565b9350611e0b83611db6565b8060005b83811015611e3c578151611e238882611dc6565b9750611e2e83611dde565b925050600181019050611e0f565b5085935050505092915050565b60006020820190508181036000830152611e638184611deb565b905092915050565b600060208284031215611e8157611e806118ee565b5b6000611e8f84828501611b8a565b91505092915050565b600082825260208201905092915050565b6000611eb48261199b565b611ebe8185611e98565b9350611ece8185602086016119b7565b611ed7816119ea565b840191505092915050565b611eeb81611a54565b82525050565b611efa81611a84565b82525050565b600060a0820190508181036000830152611f1a8188611ea9565b9050611f296020830187611ee2565b611f366040830186611ee2565b611f436060830185611bdf565b611f506080830184611ef1565b9695505050505050565b7f4f776e65722068617320746f20756e6c6f636b207361766561626c652066697260008201527f7374210000000000000000000000000000000000000000000000000000000000602082015250565b6000611fb6602383611e98565b9150611fc182611f5a565b604082019050919050565b60006020820190508181036000830152611fe581611fa9565b9050919050565b7f4e487b7100000000000000000000000000000000000000000000000000000000600052603260045260246000fd5b7f4e487b7100000000000000000000000000000000000000000000000000000000600052601160045260246000fd5b6000612055826118f8565b9150612060836118f8565b9250828210156120735761207261201b565b5b828203905092915050565b7f4e487b7100000000000000000000000000000000000000000000000000000000600052603160045260246000fd5b60006120b8826118f8565b91507fffffffffffffffffffffffffffffffffffffffffffffffffffffffffffffffff8214156120eb576120ea61201b565b5b600182019050919050565b600060408201905061210b6000830185611bdf565b6121186020830184611bdf565b9392505050565b600061212a826118f8565b9150612135836118f8565b9250827fffffffffffffffffffffffffffffffffffffffffffffffffffffffffffffffff0382111561216a5761216961201b565b5b828201905092915050565b7f4e487b7100000000000000000000000000000000000000000000000000000000600052602260045260246000fd5b600060028204905060018216806121bc57607f821691505b602082108114156121d0576121cf612175565b5b50919050565b7f4f776e61626c653a2063616c6c6572206973206e6f7420746865206f776e6572600082015250565b600061220c602083611e98565b9150612217826121d6565b602082019050919050565b6000602082019050818103600083015261223b816121ff565b9050919050565b7f4f776e61626c653a206e6577206f776e657220697320746865207a65726f206160008201527f6464726573730000000000000000000000000000000000000000000000000000602082015250565b600061229e602683611e98565b91506122a982612242565b604082019050919050565b600060208201905081810360008301526122cd81612291565b905091905056fea2646970667358221220925eb9ed7a77507fca98aef5be30cc294d53a71c54258b89cc1d8da6a083756a64736f6c634300080a0033",
  "immutableReferences": {},
  "source": "// SPDX-License-Identifier: MIT\npragma solidity ^0.8;\n\nimport \"@openzeppelin/contracts/access/Ownable.sol\";\n\nlibrary SaveableStruct {\n    struct Saveable {\n        string name;\n        address payable owner; // Parent\n        address payable accessibleBy; // Child's wallet\n        uint256 amount;\n        bool locked;\n    }\n}\n\n/// @title Candy, teach kids to save with crypto.\n/// @author Darkmatterzzz\n/// @notice A small contract to store/save Ethereum.\n/// @dev I think I got all final project requirements in here, but need to learn WAY more solidity... :)\n/// @custom:thanks Thank you Consensys for this amazing course!\ncontract Candy is Ownable {\n\n    /// @notice Store our saveable count index\n    uint public saveableCount;\n\n    mapping (uint => SaveableStruct.Saveable) public saveables;\n    mapping (address => uint[]) public saveablesRef;\n    mapping (address => uint[]) public accessibleRef;\n\n    /// @notice Trigger created\n    /// @param saveableCount Current saveeable index\n    event created(uint saveableCount);\n    /// @notice Trigger saved\n    /// @param saveableCount Current saveeable index\n    /// @param amount The amount that's been withdrawn\n    event saved(uint saveableCount, uint256 amount);\n    /// @notice Trigger withdrawn\n    /// @param saveableCount Current saveeable index\n    /// @param amount The amount hat's been withdrawn\n    event withdrawn(uint saveableCount, uint256 amount);\n    /// @notice Trigger liquidated\n    /// @param saveableCount Current saveeable index\n    event liquidated(uint saveableCount);\n\n    /// @notice Check if saveable is owned by creator, or is accessible by other address\n    modifier isOwnerOrAccessible(address _address, address _accessibleBy){\n        require(msg.sender == _address || msg.sender == _accessibleBy);\n        _;\n    }\n\n    /// @notice Check if saveable is owned by creator\n    modifier isOwner(address _address){\n        require(msg.sender == _address);\n        _;\n    }\n\n    /// @notice Check if saveable is not locked for withdrawal / liquidation\n    modifier isNotLocked(bool _isLocked){\n        require(_isLocked != true,\n        \"Owner has to unlock saveable first!\");\n        _;\n    }\n\n    constructor() {\n        saveableCount = 0;\n    }\n\n    /// @notice Stores a Saveable\n    /// @param name A name to give the Saveable\n    /// @param _accessibleBy An address that can access the saveable\n    function addSaveable(string memory name, address _accessibleBy) external payable returns(uint) {\n\n        saveables[saveableCount] = SaveableStruct.Saveable({\n        name: name,\n        owner: payable(msg.sender),\n        accessibleBy: payable(_accessibleBy),\n        amount: msg.value,\n        locked: false\n        });\n\n        emit created(saveableCount);\n\n        saveablesRef[ msg.sender ].push( saveableCount );\n        accessibleRef[ _accessibleBy ].push( saveableCount );\n\n        saveableCount = saveableCount + 1;\n\n        return saveableCount;\n    }\n\n    /// @notice Stores value inside of a Saveable bigger then 0.01 ether\n    /// @param _saveableCount Saveable index\n    function topUp(uint _saveableCount) external payable\n    {\n        require( msg.value > 0.01 ether );\n\n        saveables[_saveableCount].amount = saveables[_saveableCount].amount + msg.value;\n\n        emit saved(_saveableCount, msg.value);\n    }\n\n    /// @notice Withdraw value inside of a Saveable\n    /// @param _saveableCount Saveable index\n    /// @param amount Amount to withdraw\n    function withdraw(uint _saveableCount, uint256 amount) external payable\n    isOwnerOrAccessible(saveables[_saveableCount].owner, saveables[_saveableCount].accessibleBy)\n    isNotLocked(saveables[_saveableCount].locked)\n    {\n        require(saveables[_saveableCount].amount >= amount);\n\n        saveables[_saveableCount].amount = saveables[_saveableCount].amount - amount;\n\n        // Pay to requester\n        payable(msg.sender).transfer(amount);\n\n        emit withdrawn(_saveableCount, amount);\n    }\n\n    /// @notice Liquidate a Saveable and remove it from store\n    /// @param _saveableCount Saveable index\n    function liquidate(uint _saveableCount) external payable\n    isOwnerOrAccessible(saveables[_saveableCount].owner, saveables[_saveableCount].accessibleBy)\n    isNotLocked(saveables[_saveableCount].locked)\n    {\n        require(_saveableCount < saveableCount);\n\n        // Pay to requester\n        payable(msg.sender).transfer(saveables[_saveableCount].amount);\n\n        delete saveables[_saveableCount];\n\n        for(uint i = 0; i< saveablesRef[msg.sender].length; i++){\n            if( saveablesRef[msg.sender][i] == _saveableCount ){\n                saveablesRef[msg.sender][i] = saveablesRef[msg.sender][ saveablesRef[msg.sender].length-1 ];\n                saveablesRef[msg.sender].pop();\n            }\n        }\n\n        for(uint i = 0; i<accessibleRef[msg.sender].length; i++){\n            if( accessibleRef[msg.sender][i] == _saveableCount ){\n                accessibleRef[msg.sender][i] = accessibleRef[msg.sender][ accessibleRef[msg.sender].length-1 ];\n                accessibleRef[msg.sender].pop();\n            }\n        }\n\n        emit liquidated(_saveableCount);\n    }\n\n    /// @notice View a saveable, only viewable by owner/accessiblyBy\n    /// @param _saveableCount Saveable index\n    function mySaveable(uint _saveableCount)\n    //isOwnerOrAccessible(saveables[_saveableCount].owner, saveables[_saveableCount].accessibleBy)\n    public view returns(SaveableStruct.Saveable memory saveable){\n        return saveables[_saveableCount];\n    }\n\n    /// @notice Returns all saveables where you have access (accessible) to\n    function myAccessibles()\n    public view returns(uint[] memory){\n        return accessibleRef[ msg.sender ];\n    }\n\n    /// @notice Returns all saveables of the current sender\n    function mySaveables()\n    public view returns(uint[] memory) {\n        return saveablesRef[ msg.sender ];\n    }\n\n    /// @notice Enable external contract to lock a saveable\n    function lock(uint _saveableCount)\n    isOwner(saveables[_saveableCount].owner)\n    public {\n        saveables[_saveableCount].locked = true;\n    }\n\n    /// @notice Enable external contract to unlock a saveable\n    function unlock(uint _saveableCount)\n    isOwner(saveables[_saveableCount].owner)\n    public {\n        saveables[_saveableCount].locked = false;\n    }\n}",
  "sourcePath": "/Users/yame/Crypto/blockchain-developer-bootcamp-final-project/contracts/Candy.sol",
  "compiler": {
    "name": "solc",
    "version": "0.8.10+commit.fc410830.Emscripten.clang"
  },
  "schemaVersion": "3.4.3",
  "updatedAt": "2021-11-30T14:05:05.034Z",
  "networkType": "ethereum",
  "devdoc": {
    "author": "Darkmatterzzz",
    "custom:thanks": "Thank you Consensys for this amazing course!",
    "details": "I think I got all final project requirements in here, but need to learn WAY more solidity... :)",
    "events": {
      "created(uint256)": {
        "params": {
          "saveableCount": "Current saveeable index"
        }
      },
      "liquidated(uint256)": {
        "params": {
          "saveableCount": "Current saveeable index"
        }
      },
      "saved(uint256,uint256)": {
        "params": {
          "amount": "The amount that's been withdrawn",
          "saveableCount": "Current saveeable index"
        }
      },
      "withdrawn(uint256,uint256)": {
        "params": {
          "amount": "The amount hat's been withdrawn",
          "saveableCount": "Current saveeable index"
        }
      }
    },
    "kind": "dev",
    "methods": {
      "addSaveable(string,address)": {
        "params": {
          "_accessibleBy": "An address that can access the saveable",
          "name": "A name to give the Saveable"
        }
      },
      "liquidate(uint256)": {
        "params": {
          "_saveableCount": "Saveable index"
        }
      },
      "mySaveable(uint256)": {
        "params": {
          "_saveableCount": "Saveable index"
        }
      },
      "owner()": {
        "details": "Returns the address of the current owner."
      },
      "renounceOwnership()": {
        "details": "Leaves the contract without owner. It will not be possible to call `onlyOwner` functions anymore. Can only be called by the current owner. NOTE: Renouncing ownership will leave the contract without an owner, thereby removing any functionality that is only available to the owner."
      },
      "topUp(uint256)": {
        "params": {
          "_saveableCount": "Saveable index"
        }
      },
      "transferOwnership(address)": {
        "details": "Transfers ownership of the contract to a new account (`newOwner`). Can only be called by the current owner."
      },
      "withdraw(uint256,uint256)": {
        "params": {
          "_saveableCount": "Saveable index",
          "amount": "Amount to withdraw"
        }
      }
    },
    "title": "Candy, teach kids to save with crypto.",
    "version": 1
  },
  "userdoc": {
    "events": {
      "created(uint256)": {
        "notice": "Trigger created"
      },
      "liquidated(uint256)": {
        "notice": "Trigger liquidated"
      },
      "saved(uint256,uint256)": {
        "notice": "Trigger saved"
      },
      "withdrawn(uint256,uint256)": {
        "notice": "Trigger withdrawn"
      }
    },
    "kind": "user",
    "methods": {
      "addSaveable(string,address)": {
        "notice": "Stores a Saveable"
      },
      "liquidate(uint256)": {
        "notice": "Liquidate a Saveable and remove it from store"
      },
      "lock(uint256)": {
        "notice": "Enable external contract to lock a saveable"
      },
      "myAccessibles()": {
        "notice": "Returns all saveables where you have access (accessible) to"
      },
      "mySaveable(uint256)": {
        "notice": "View a saveable, only viewable by owner/accessiblyBy"
      },
      "mySaveables()": {
        "notice": "Returns all saveables of the current sender"
      },
      "saveableCount()": {
        "notice": "Store our saveable count index"
      },
      "topUp(uint256)": {
        "notice": "Stores value inside of a Saveable bigger then 0.01 ether"
      },
      "unlock(uint256)": {
        "notice": "Enable external contract to unlock a saveable"
      },
      "withdraw(uint256,uint256)": {
        "notice": "Withdraw value inside of a Saveable"
      }
    },
    "notice": "A small contract to store/save Ethereum.",
    "version": 1
  }
}